{
  "contractName": "TaskManager",
  "abi": [
    {
      "inputs": [],
      "stateMutability": "nonpayable",
      "type": "constructor"
    },
    {
      "anonymous": false,
      "inputs": [
        {
          "indexed": true,
          "internalType": "address",
          "name": "user",
          "type": "address"
        },
        {
          "indexed": false,
          "internalType": "uint256",
          "name": "amount",
          "type": "uint256"
        }
      ],
      "name": "GasCreditsAdded",
      "type": "event"
    },
    {
      "anonymous": false,
      "inputs": [
        {
          "indexed": false,
          "internalType": "uint256",
          "name": "taskId",
          "type": "uint256"
        },
        {
          "indexed": false,
          "internalType": "string",
          "name": "description",
          "type": "string"
        },
        {
          "indexed": false,
          "internalType": "uint256",
          "name": "reward",
          "type": "uint256"
        }
      ],
      "name": "TaskAdded",
      "type": "event"
    },
    {
      "anonymous": false,
      "inputs": [
        {
          "indexed": false,
          "internalType": "uint256",
          "name": "taskId",
          "type": "uint256"
        },
        {
          "indexed": false,
          "internalType": "address",
          "name": "freelancer",
          "type": "address"
        }
      ],
      "name": "TaskAssigned",
      "type": "event"
    },
    {
      "anonymous": false,
      "inputs": [
        {
          "indexed": false,
          "internalType": "uint256",
          "name": "taskId",
          "type": "uint256"
        },
        {
          "indexed": false,
          "internalType": "address",
          "name": "freelancer",
          "type": "address"
        }
      ],
      "name": "TaskCompleted",
      "type": "event"
    },
    {
      "inputs": [
        {
          "internalType": "address",
          "name": "",
          "type": "address"
        }
      ],
      "name": "gasCredits",
      "outputs": [
        {
          "internalType": "uint256",
          "name": "",
          "type": "uint256"
        }
      ],
      "stateMutability": "view",
      "type": "function"
    },
    {
      "inputs": [],
      "name": "owner",
      "outputs": [
        {
          "internalType": "address",
          "name": "",
          "type": "address"
        }
      ],
      "stateMutability": "view",
      "type": "function"
    },
    {
      "inputs": [
        {
          "internalType": "uint256",
          "name": "",
          "type": "uint256"
        }
      ],
      "name": "tasks",
      "outputs": [
        {
          "internalType": "string",
          "name": "description",
          "type": "string"
        },
        {
          "internalType": "uint256",
          "name": "reward",
          "type": "uint256"
        },
        {
          "internalType": "bool",
          "name": "isComplete",
          "type": "bool"
        },
        {
          "internalType": "address",
          "name": "assignedTo",
          "type": "address"
        }
      ],
      "stateMutability": "view",
      "type": "function"
    },
    {
      "inputs": [
        {
          "internalType": "address",
          "name": "user",
          "type": "address"
        },
        {
          "internalType": "uint256",
          "name": "amount",
          "type": "uint256"
        }
      ],
      "name": "addGasCredits",
      "outputs": [],
      "stateMutability": "nonpayable",
      "type": "function"
    },
    {
      "inputs": [
        {
          "internalType": "string",
          "name": "_description",
          "type": "string"
        },
        {
          "internalType": "uint256",
          "name": "_reward",
          "type": "uint256"
        }
      ],
      "name": "addTask",
      "outputs": [],
      "stateMutability": "nonpayable",
      "type": "function"
    },
    {
      "inputs": [
        {
          "internalType": "uint256",
          "name": "taskId",
          "type": "uint256"
        },
        {
          "internalType": "address",
          "name": "freelancer",
          "type": "address"
        }
      ],
      "name": "assignTask",
      "outputs": [],
      "stateMutability": "nonpayable",
      "type": "function"
    },
    {
      "inputs": [
        {
          "internalType": "uint256",
          "name": "taskId",
          "type": "uint256"
        }
      ],
      "name": "completeTask",
      "outputs": [],
      "stateMutability": "nonpayable",
      "type": "function"
    },
    {
      "inputs": [
        {
          "internalType": "uint256",
          "name": "taskId",
          "type": "uint256"
        }
      ],
      "name": "getTask",
      "outputs": [
        {
          "internalType": "string",
          "name": "",
          "type": "string"
        },
        {
          "internalType": "uint256",
          "name": "",
          "type": "uint256"
        },
        {
          "internalType": "bool",
          "name": "",
          "type": "bool"
        },
        {
          "internalType": "address",
          "name": "",
          "type": "address"
        }
      ],
      "stateMutability": "view",
      "type": "function"
    },
    {
      "inputs": [],
      "name": "fundContract",
      "outputs": [],
      "stateMutability": "payable",
      "type": "function"
    },
    {
      "inputs": [
        {
          "internalType": "uint256",
          "name": "amount",
          "type": "uint256"
        }
      ],
      "name": "withdrawFunds",
      "outputs": [],
      "stateMutability": "nonpayable",
      "type": "function"
    }
  ],
  "bytecode": "0x6080604052348015600e575f5ffd5b503360015f6101000a81548173ffffffffffffffffffffffffffffffffffffffff021916908373ffffffffffffffffffffffffffffffffffffffff1602179055506118a48061005c5f395ff3fe608060405260043610610090575f3560e01c80638d977672116100585780638d977672146101735780638da5cb5b146101b2578063b056aa35146101dc578063bd097e2114610218578063e1e295581461022257610090565b8063155dd5ee146100945780631d65e77e146100bc5780633143d082146100fb5780635293ee8114610123578063827961e91461014b575b5f5ffd5b34801561009f575f5ffd5b506100ba60048036038101906100b59190610d43565b61024a565b005b3480156100c7575f5ffd5b506100e260048036038101906100dd9190610d43565b610384565b6040516100f29493929190610e46565b60405180910390f35b348015610106575f5ffd5b50610121600480360381019061011c9190610fbc565b610483565b005b34801561012e575f5ffd5b5061014960048036038101906101449190611040565b610697565b005b348015610156575f5ffd5b50610171600480360381019061016c919061107e565b61081a565b005b34801561017e575f5ffd5b5061019960048036038101906101949190610d43565b61094e565b6040516101a99493929190610e46565b60405180910390f35b3480156101bd575f5ffd5b506101c6610a3a565b6040516101d391906110bc565b60405180910390f35b3480156101e7575f5ffd5b5061020260048036038101906101fd91906110d5565b610a5f565b60405161020f9190611100565b60405180910390f35b610220610a74565b005b34801561022d575f5ffd5b5061024860048036038101906102439190610d43565b610a76565b005b60015f9054906101000a900473ffffffffffffffffffffffffffffffffffffffff1673ffffffffffffffffffffffffffffffffffffffff163373ffffffffffffffffffffffffffffffffffffffff16146102d9576040517f08c379a00000000000000000000000000000000000000000000000000000000081526004016102d090611163565b60405180910390fd5b8047101561031c576040517f08c379a0000000000000000000000000000000000000000000000000000000008152600401610313906111cb565b60405180910390fd5b60015f9054906101000a900473ffffffffffffffffffffffffffffffffffffffff1673ffffffffffffffffffffffffffffffffffffffff166108fc8290811502906040515f60405180830381858888f19350505050158015610380573d5f5f3e3d5ffd5b5050565b60605f5f5f5f5f868154811061039d5761039c6111e9565b5b905f5260205f2090600302019050805f018160010154826002015f9054906101000a900460ff168360020160019054906101000a900473ffffffffffffffffffffffffffffffffffffffff168380546103f590611243565b80601f016020809104026020016040519081016040528092919081815260200182805461042190611243565b801561046c5780601f106104435761010080835404028352916020019161046c565b820191905f5260205f20905b81548152906001019060200180831161044f57829003601f168201915b505050505093509450945094509450509193509193565b60015f9054906101000a900473ffffffffffffffffffffffffffffffffffffffff1673ffffffffffffffffffffffffffffffffffffffff163373ffffffffffffffffffffffffffffffffffffffff1614610512576040517f08c379a0000000000000000000000000000000000000000000000000000000008152600401610509906112bd565b60405180910390fd5b5f60405180608001604052808481526020018381526020015f151581526020015f73ffffffffffffffffffffffffffffffffffffffff16815250908060018154018082558091505060019003905f5260205f2090600302015f909190919091505f820151815f019081610585919061147b565b50602082015181600101556040820151816002015f6101000a81548160ff02191690831515021790555060608201518160020160016101000a81548173ffffffffffffffffffffffffffffffffffffffff021916908373ffffffffffffffffffffffffffffffffffffffff16021790555050505f60025f3373ffffffffffffffffffffffffffffffffffffffff1673ffffffffffffffffffffffffffffffffffffffff1681526020019081526020015f20541115610648576106473382610c28565b5b7fe1aae1cb4745fccc4315dc70504babb014a5b3de0fc5a1b47b1b7cbc03d6d03560015f8054905061067a9190611577565b838360405161068b939291906115aa565b60405180910390a15050565b60015f9054906101000a900473ffffffffffffffffffffffffffffffffffffffff1673ffffffffffffffffffffffffffffffffffffffff163373ffffffffffffffffffffffffffffffffffffffff1614610726576040517f08c379a000000000000000000000000000000000000000000000000000000000815260040161071d90611630565b60405180910390fd5b5f5f838154811061073a576107396111e9565b5b905f5260205f2090600302019050806002015f9054906101000a900460ff1615610799576040517f08c379a000000000000000000000000000000000000000000000000000000000815260040161079090611698565b60405180910390fd5b818160020160016101000a81548173ffffffffffffffffffffffffffffffffffffffff021916908373ffffffffffffffffffffffffffffffffffffffff1602179055507f52476d55ecef5cf13caa64038f297fe6bbf865d9584a98b8722a15a6d5db128f838360405161080d9291906116b6565b60405180910390a1505050565b60015f9054906101000a900473ffffffffffffffffffffffffffffffffffffffff1673ffffffffffffffffffffffffffffffffffffffff163373ffffffffffffffffffffffffffffffffffffffff16146108a9576040517f08c379a00000000000000000000000000000000000000000000000000000000081526004016108a090611727565b60405180910390fd5b8060025f8473ffffffffffffffffffffffffffffffffffffffff1673ffffffffffffffffffffffffffffffffffffffff1681526020019081526020015f205f8282546108f59190611745565b925050819055508173ffffffffffffffffffffffffffffffffffffffff167f20bd01ecaf63f3d1d704660ea0b2a130112f52dd1350bef52da7efbb549231dd826040516109429190611100565b60405180910390a25050565b5f818154811061095c575f80fd5b905f5260205f2090600302015f91509050805f01805461097b90611243565b80601f01602080910402602001604051908101604052809291908181526020018280546109a790611243565b80156109f25780601f106109c9576101008083540402835291602001916109f2565b820191905f5260205f20905b8154815290600101906020018083116109d557829003601f168201915b505050505090806001015490806002015f9054906101000a900460ff16908060020160019054906101000a900473ffffffffffffffffffffffffffffffffffffffff16905084565b60015f9054906101000a900473ffffffffffffffffffffffffffffffffffffffff1681565b6002602052805f5260405f205f915090505481565b565b5f5f8281548110610a8a57610a896111e9565b5b905f5260205f20906003020190508060020160019054906101000a900473ffffffffffffffffffffffffffffffffffffffff1673ffffffffffffffffffffffffffffffffffffffff163373ffffffffffffffffffffffffffffffffffffffff1614610b2a576040517f08c379a0000000000000000000000000000000000000000000000000000000008152600401610b21906117e8565b60405180910390fd5b806002015f9054906101000a900460ff1615610b7b576040517f08c379a0000000000000000000000000000000000000000000000000000000008152600401610b7290611698565b60405180910390fd5b6001816002015f6101000a81548160ff0219169083151502179055505f60025f3373ffffffffffffffffffffffffffffffffffffffff1673ffffffffffffffffffffffffffffffffffffffff1681526020019081526020015f20541115610beb57610bea338260010154610c28565b5b7fbb5889c77948badf90e8a5c73d55265e5f5d6e4837a79a78c5669691b897faed8233604051610c1c9291906116b6565b60405180910390a15050565b8060025f8473ffffffffffffffffffffffffffffffffffffffff1673ffffffffffffffffffffffffffffffffffffffff1681526020019081526020015f20541015610ca8576040517f08c379a0000000000000000000000000000000000000000000000000000000008152600401610c9f90611850565b60405180910390fd5b8060025f8473ffffffffffffffffffffffffffffffffffffffff1673ffffffffffffffffffffffffffffffffffffffff1681526020019081526020015f205f828254610cf49190611577565b925050819055505050565b5f604051905090565b5f5ffd5b5f5ffd5b5f819050919050565b610d2281610d10565b8114610d2c575f5ffd5b50565b5f81359050610d3d81610d19565b92915050565b5f60208284031215610d5857610d57610d08565b5b5f610d6584828501610d2f565b91505092915050565b5f81519050919050565b5f82825260208201905092915050565b8281835e5f83830152505050565b5f601f19601f8301169050919050565b5f610db082610d6e565b610dba8185610d78565b9350610dca818560208601610d88565b610dd381610d96565b840191505092915050565b610de781610d10565b82525050565b5f8115159050919050565b610e0181610ded565b82525050565b5f73ffffffffffffffffffffffffffffffffffffffff82169050919050565b5f610e3082610e07565b9050919050565b610e4081610e26565b82525050565b5f6080820190508181035f830152610e5e8187610da6565b9050610e6d6020830186610dde565b610e7a6040830185610df8565b610e876060830184610e37565b95945050505050565b5f5ffd5b5f5ffd5b7f4e487b71000000000000000000000000000000000000000000000000000000005f52604160045260245ffd5b610ece82610d96565b810181811067ffffffffffffffff82111715610eed57610eec610e98565b5b80604052505050565b5f610eff610cff565b9050610f0b8282610ec5565b919050565b5f67ffffffffffffffff821115610f2a57610f29610e98565b5b610f3382610d96565b9050602081019050919050565b828183375f83830152505050565b5f610f60610f5b84610f10565b610ef6565b905082815260208101848484011115610f7c57610f7b610e94565b5b610f87848285610f40565b509392505050565b5f82601f830112610fa357610fa2610e90565b5b8135610fb3848260208601610f4e565b91505092915050565b5f5f60408385031215610fd257610fd1610d08565b5b5f83013567ffffffffffffffff811115610fef57610fee610d0c565b5b610ffb85828601610f8f565b925050602061100c85828601610d2f565b9150509250929050565b61101f81610e26565b8114611029575f5ffd5b50565b5f8135905061103a81611016565b92915050565b5f5f6040838503121561105657611055610d08565b5b5f61106385828601610d2f565b92505060206110748582860161102c565b9150509250929050565b5f5f6040838503121561109457611093610d08565b5b5f6110a18582860161102c565b92505060206110b285828601610d2f565b9150509250929050565b5f6020820190506110cf5f830184610e37565b92915050565b5f602082840312156110ea576110e9610d08565b5b5f6110f78482850161102c565b91505092915050565b5f6020820190506111135f830184610dde565b92915050565b7f4f6e6c79206f776e65722063616e2077697468647261772066756e64730000005f82015250565b5f61114d601d83610d78565b915061115882611119565b602082019050919050565b5f6020820190508181035f83015261117a81611141565b9050919050565b7f496e73756666696369656e7420636f6e74726163742062616c616e63650000005f82015250565b5f6111b5601d83610d78565b91506111c082611181565b602082019050919050565b5f6020820190508181035f8301526111e2816111a9565b9050919050565b7f4e487b71000000000000000000000000000000000000000000000000000000005f52603260045260245ffd5b7f4e487b71000000000000000000000000000000000000000000000000000000005f52602260045260245ffd5b5f600282049050600182168061125a57607f821691505b60208210810361126d5761126c611216565b5b50919050565b7f4f6e6c79206f776e65722063616e20616464207461736b7300000000000000005f82015250565b5f6112a7601883610d78565b91506112b282611273565b602082019050919050565b5f6020820190508181035f8301526112d48161129b565b9050919050565b5f819050815f5260205f209050919050565b5f6020601f8301049050919050565b5f82821b905092915050565b5f600883026113377fffffffffffffffffffffffffffffffffffffffffffffffffffffffffffffffff826112fc565b61134186836112fc565b95508019841693508086168417925050509392505050565b5f819050919050565b5f61137c61137761137284610d10565b611359565b610d10565b9050919050565b5f819050919050565b61139583611362565b6113a96113a182611383565b848454611308565b825550505050565b5f5f905090565b6113c06113b1565b6113cb81848461138c565b505050565b5b818110156113ee576113e35f826113b8565b6001810190506113d1565b5050565b601f82111561143357611404816112db565b61140d846112ed565b8101602085101561141c578190505b611430611428856112ed565b8301826113d0565b50505b505050565b5f82821c905092915050565b5f6114535f1984600802611438565b1980831691505092915050565b5f61146b8383611444565b9150826002028217905092915050565b61148482610d6e565b67ffffffffffffffff81111561149d5761149c610e98565b5b6114a78254611243565b6114b28282856113f2565b5f60209050601f8311600181146114e3575f84156114d1578287015190505b6114db8582611460565b865550611542565b601f1984166114f1866112db565b5f5b82811015611518578489015182556001820191506020850194506020810190506114f3565b868310156115355784890151611531601f891682611444565b8355505b6001600288020188555050505b505050505050565b7f4e487b71000000000000000000000000000000000000000000000000000000005f52601160045260245ffd5b5f61158182610d10565b915061158c83610d10565b92508282039050818111156115a4576115a361154a565b5b92915050565b5f6060820190506115bd5f830186610dde565b81810360208301526115cf8185610da6565b90506115de6040830184610dde565b949350505050565b7f4f6e6c79206f776e65722063616e2061737369676e207461736b7300000000005f82015250565b5f61161a601b83610d78565b9150611625826115e6565b602082019050919050565b5f6020820190508181035f8301526116478161160e565b9050919050565b7f5461736b20616c726561647920636f6d706c65746564000000000000000000005f82015250565b5f611682601683610d78565b915061168d8261164e565b602082019050919050565b5f6020820190508181035f8301526116af81611676565b9050919050565b5f6040820190506116c95f830185610dde565b6116d66020830184610e37565b9392505050565b7f4f6e6c79206f776e65722063616e2061646420676173206372656469747300005f82015250565b5f611711601e83610d78565b915061171c826116dd565b602082019050919050565b5f6020820190508181035f83015261173e81611705565b9050919050565b5f61174f82610d10565b915061175a83610d10565b92508282019050808211156117725761177161154a565b5b92915050565b7f4f6e6c792061737369676e656420667265656c616e6365722063616e20636f6d5f8201527f706c657465207461736b00000000000000000000000000000000000000000000602082015250565b5f6117d2602a83610d78565b91506117dd82611778565b604082019050919050565b5f6020820190508181035f8301526117ff816117c6565b9050919050565b7f4e6f7420656e6f756768206761732063726564697473000000000000000000005f82015250565b5f61183a601683610d78565b915061184582611806565b602082019050919050565b5f6020820190508181035f8301526118678161182e565b905091905056fea26469706673582212200b5c93b5bd2cf85e23c37fd78ae9f7b368fd70398560dbbe1f0eaa18e321ca1264736f6c634300081c0033",
  "immutableReferences": {},
  "source": "// SPDX-License-Identifier: MIT\r\npragma solidity ^0.8.0;\r\n\r\ncontract TaskManager {\r\n    struct Task {\r\n        string description;\r\n        uint256 reward;\r\n        bool isComplete;\r\n        address assignedTo;\r\n    }\r\n\r\n    Task[] public tasks;\r\n    address public owner;\r\n\r\n    mapping(address => uint256) public gasCredits; // To store gas credits for freelancers/companies.\r\n\r\n    event TaskAdded(uint256 taskId, string description, uint256 reward);\r\n    event TaskAssigned(uint256 taskId, address freelancer);\r\n    event TaskCompleted(uint256 taskId, address freelancer);\r\n    event GasCreditsAdded(address indexed user, uint256 amount);\r\n\r\n    constructor() {\r\n        owner = msg.sender;\r\n    }\r\n\r\n    // Add gas credits to a freelancer or company account.\r\n    function addGasCredits(address user, uint256 amount) public {\r\n        require(msg.sender == owner, \"Only owner can add gas credits\");\r\n        gasCredits[user] += amount;\r\n        emit GasCreditsAdded(user, amount);\r\n    }\r\n\r\n    // Deduct gas credits from the user.\r\n    function useGasCredits(address user, uint256 amount) internal {\r\n        require(gasCredits[user] >= amount, \"Not enough gas credits\");\r\n        gasCredits[user] -= amount;\r\n    }\r\n\r\n    // Add a new task. Owner only.\r\n    function addTask(string memory _description, uint256 _reward) public {\r\n        require(msg.sender == owner, \"Only owner can add tasks\");\r\n        tasks.push(Task(_description, _reward, false, address(0)));\r\n\r\n        // Owner receives gas credit deduction benefit.\r\n        if (gasCredits[msg.sender] > 0) {\r\n            useGasCredits(msg.sender, _reward);\r\n        }\r\n\r\n        emit TaskAdded(tasks.length - 1, _description, _reward);\r\n    }\r\n\r\n    // Assign a task to a freelancer. Owner only.\r\n    function assignTask(uint256 taskId, address freelancer) public {\r\n        require(msg.sender == owner, \"Only owner can assign tasks\");\r\n        Task storage task = tasks[taskId];\r\n        require(!task.isComplete, \"Task already completed\");\r\n        task.assignedTo = freelancer;\r\n\r\n        emit TaskAssigned(taskId, freelancer);\r\n    }\r\n\r\n    // Complete a task. Freelancer only.\r\n    function completeTask(uint256 taskId) public {\r\n        Task storage task = tasks[taskId];\r\n        require(msg.sender == task.assignedTo, \"Only assigned freelancer can complete task\");\r\n        require(!task.isComplete, \"Task already completed\");\r\n        task.isComplete = true;\r\n\r\n        // Freelancer receives gas credit deduction benefit.\r\n        if (gasCredits[msg.sender] > 0) {\r\n            useGasCredits(msg.sender, task.reward);\r\n        }\r\n\r\n        emit TaskCompleted(taskId, msg.sender);\r\n    }\r\n\r\n    // Get task details.\r\n    function getTask(uint256 taskId) public view returns (string memory, uint256, bool, address) {\r\n        Task storage task = tasks[taskId];\r\n        return (task.description, task.reward, task.isComplete, task.assignedTo);\r\n    }\r\n\r\n    // Add funds to the contract (e.g., for subsidizing gas credits).\r\n    function fundContract() public payable {}\r\n\r\n    // Withdraw funds from the contract. Owner only.\r\n    function withdrawFunds(uint256 amount) public {\r\n        require(msg.sender == owner, \"Only owner can withdraw funds\");\r\n        require(address(this).balance >= amount, \"Insufficient contract balance\");\r\n        payable(owner).transfer(amount);\r\n    }\r\n}\r\n",
  "sourcePath": "A:\\nextgennodes\\src\\smart_contracts\\contracts\\TaskManager.sol",
  "compiler": {
    "name": "solc",
    "version": "0.8.28+commit.7893614a.Emscripten.clang"
  },
  "schemaVersion": "3.4.16",
  "updatedAt": "2024-12-02T05:28:07.770Z",
  "devdoc": {
    "kind": "dev",
    "methods": {},
    "version": 1
  },
  "userdoc": {
    "kind": "user",
    "methods": {},
    "version": 1
  }
}